:020000040800F2
:10000000400B00202D500008590300085B03000836
:100010005F03000863030008670300080000000096
:100020000000000000000000000000006B0300085A
:100030006D030008000000006F0300087103000852
:100040004750000847500008475000084750000834
:100050004750000847500008475000084750000824
:100060004750000847500008475000084750000814
:100070004750000847500008475000084750000804
:1000800047500008475000084750000847500008F4
:1000900047500008475000084750000847500008E4
:1000A00047500008DB4B0008475000084B4C000845
:1000B00047500008475000083D46000847500008D8
:1000C00047500008475000084750000847500008B4
:1000D00047500008A34F0008475000087D4900081A
:1000E0004750000847500008475000084750000894
:1000F0004750000847500008475000084750000884
:100100004750000847500008475000084750000873
:10011000475000084750000847500008F5480008BD
:100120004750000847500008475000084750000853
:100130004750000847500008475000084750000843
:100140004750000847500008475000084750000833
:100150004750000847500008475000084750000823
:100160004750000847500008475000084750000813
:100170004750000847500008475000084750000803
:10018000475000084750000800F002F800F092F8CD
:100190000AA090E8000C82448344AAF10107DA45E2
:1001A00001D100F087F8AFF2090EBAE80F0013F0A2
:1001B000010F18BFFB1A43F00103184788A900007C
:1001C000A8A90000103A24BF78C878C1FAD852070D
:1001D00024BF30C830C144BF04680C6070470000C1
:1001E0000023002400250026103A28BF78C1FBD840
:1001F000520728BF30C148BF0B6070476E2906F018
:10020000B987702906F0A385662909F05485652908
:1002100009F05185672909F04E85612909F04D855E
:1002200003681B0A28BF41F08001692906F0148584
:10023000642906F01185752906F00E856F2907F0EF
:10024000B180782906F06F85E92907F04B80E42911
:1002500007F04880F52907F04580EF2907F0AE80C8
:10026000F82906F06E850368DB0928BF41F080019C
:10027000632906F0BA87732906F0BF87E32907F0E0
:10028000A784F32907F0AC84002070471FB509F05C
:1002900008FD07F027FD04000020002108F01CFFE6
:1002A000401C60600020002108F000FFE0601FBDDE
:1002B00010B510BD07F0E8FC1146FFF7E7FF00F0AE
:1002C00009F807F0C1FD03B4FFF7F2FF03BC04F027
:1002D00009FE00004FF4A06004F0C8FEA82004F05E
:1002E0007FFD4FF4E13004F00AFE04F009FC04F055
:1002F000C7F904F0A5F804F0FEF803F063FC002150
:1003000042F2CF0003F03CFD42F2CF01632004F043
:1003100069F900F0C0F906E009A006F041FC4FF4CD
:10032000FA7004F0BFFD02F02AFC0028F4D105E0C9
:1003300003F091FE03F0FEFE03F073FFF8E7000008
:100340000A4D50555F444D505F496E6974204572A7
:10035000726F72210A000000704700BFFEE700BF05
:10036000FEE700BFFEE700BFFEE77047704770473B
:10037000704700000CB5002001900090764800689E
:1003800040F480307449086000BF7348006800F48E
:10039000003000900198401C0190009818B9019815
:1003A000B0F5A04FF1D16C48006800F4003010B1F6
:1003B0000120009001E0002000900098012846D123
:1003C00065484030006840F0805063494031086023
:1003D0006248006840F44040604908605E48083068
:1003E00000685D49083108600846006840F4004034
:1003F00008600846006840F4A05008605848091F8B
:100400000860081F006840F08070091F086000BF86
:100410005148006800F000700028F9D040F20570E3
:10042000504908604C480830006820F003004A49F1
:10043000083108600846006840F00200086000BF0C
:1004400045480830006800F00C000828F8D10CBDC1
:1004500010B54548006840F47000434908603E48C4
:10046000006840F001003C49086000203A4908312A
:100470000860394800683D490840374908603C48F1
:10048000091D0860081F006820F48020091F08600B
:10049000002031490C310860FFF76CFF4FF000601D
:1004A00031498039086010BD70B500200022022358
:1004B00000240221284D08352D6805F00C0020B1DC
:1004C000042806D0082834D107E02A4D2A4E35608A
:1004D00033E02A4D284E35602FE01F4D2D1D2D682D
:1004E000C5F380541C4D2D1D2D6805F03F0154B1FE
:1004F000224DB5FBF1F5184E361D3668C6F3881649
:1005000005FB06F209E01B4DB5FBF1F5124E361D59
:100510003668C6F3881605FB06F20F4D2D1D2D68B3
:10052000C5F301456D1C6B00B2FBF3F5124E35604F
:1005300003E0104D104E356000BF00BF064D08357A
:100540002D68C5F303150E4E705D0B4D2D68C5402B
:10055000094E356070BD0000003802400070004058
:1005600008544007003C024088ED00E0FFFFF6FE23
:10057000103000240024F4004400002000127A000F
:100580004800002070B505460C4600F0E5F9D02083
:1005900000F08EFA00F021FA18B100F0FFF9012006
:1005A00070BD284600F084FA00F017FA204600F0EB
:1005B0007FFA00F012FA18B100F0F0F90120EFE72D
:1005C00000F0ECF90020EBE770B504460025BC2CE8
:1005D00001DB012510E0622C01DB02250CE02A2C56
:1005E00001DB032508E0142C01DB042504E00A2CC0
:1005F00001DB052500E0062529461A20FFF7C2FF8A
:1006000070BD70B50446B4F57A7F01DD4FF47A749D
:10061000042C00DA04244FF47A7090FBF4F0401EAE
:10062000C5B229461920FFF7ADFF0546264604EB63
:10063000D671C1F34F00FFF7C7FF70BD70B5044618
:1006400000F08AF9D02000F033FA00F0C6F9204615
:1006500000F02EFA00F0C1F900F07EF9D12000F090
:1006600027FA00F0BAF9002000F04FFA054600F032
:1006700095F9284670BD10B50446E006010E1C2011
:10068000FFF780FF10BD10B50446E006010E1B20E9
:10069000FFF778FF10BD10B500F040F980216B2006
:1006A000FFF770FF642004F0FDFB00216B20FFF7D3
:1006B00069FF0320FFF7E7FF0020FFF7DCFFC820FA
:1006C000FFF79FFF00213820FFF75CFF00216A2021
:1006D000FFF758FF00212320FFF754FF8021372028
:1006E000FFF750FF7520FFF7A9FF0446214683A0BE
:1006F00006F056FA682C0BD101216B20FFF742FF60
:1007000000216C20FFF73EFFC820FFF77AFF01E0D1
:10071000012010BD0020FCE72DE9F04106460F4600
:1007200014461D4600F018F9002141EA4601C8B2FE
:1007300000F0BEF900F051F920B100F02FF90120CE
:10074000BDE8F081384600F0B3F900F046F900F05A
:1007500003F9012101EB4601C8B200F0A9F900F04C
:100760003CF90DE0012C04D1002000F0CEF92870F6
:1007700003E0012000F0C9F92870601EC4B26D1CAE
:10078000002CEFD100F00AF90020D9E710B52DEDCB
:10079000088B82B001AB022241216820FFF7BCFF29
:1007A0009DF805009DF8041040EA012004B220469F
:1007B00008F0F2FE41EC1B0B9FED530B53EC102B9A
:1007C00008F092FD41EC1A0B9FED510B53EC102BEE
:1007D00008F0D6FC41EC190B08F0A0FC08EE100A5A
:1007E0009FED4D0A28EE000ABDEEC00A10EE100A79
:1007F00000B202B0BDEC088B10BD2DE9FC410446EF
:100800000D4616466B46062243216820FFF784FFFB
:100810000746BFB99DF801009DF8001040EA01208D
:1008200000B220809DF803009DF8021040EA0120EC
:1008300000B228809DF805009DF8041040EA0120D0
:1008400000B230803846BDE8FC812DE9FC41044609
:100850000D4616466B4606223B216820FFF75CFFDB
:100860000746BFB99DF801009DF8001040EA01203D
:1008700000B220809DF803009DF8021040EA01209C
:1008800000B228809DF805009DF8041040EA012080
:1008900000B230803846BDE8FC812DE9F0410546C4
:1008A0000E461746984600F057F8002141EA4501E8
:1008B000C8B200F0FDF800F090F820B100F06EF83A
:1008C0000120BDE8F081304600F0F2F800F085F834
:1008D00000240CE018F8040000F0EAF800F07DF8BD
:1008E00018B100F05BF80120EBE7601CC4B2BC4219
:1008F000F0DB00F053F80020E3E70000726573209E
:100900003D2025640A000000000000000040754002
:10091000A4703D0AD74342400000C8421CB50121E3
:10092000084604F037FF3020009001208DF80400C5
:1009300000208DF8060002208DF8050001208DF8BA
:1009400007006946884804F087FC01208749086051
:100950008749C1F894021CBD10B58348006820F493
:100960004060814908600846006840F48060086083
:1009700001207E49091D08607D49C1F890020420CC
:1009800004F048FA00207949091D0860042004F0A9
:1009900041FA00207649C1F8900210BD10B57248A6
:1009A000006820F44060704908600846006840F420
:1009B0008060086000206D4908606D49C1F89402AC
:1009C000042004F027FA0120684908606849C1F84A
:1009D0009402042004F01EFA10BD10B500246248F1
:1009E000006820F4406060490860084600680860BC
:1009F00001205E49091D086004F00CFA01205C49E1
:100A0000C1F8900204F006FA07E0601CC4B2FA2CA8
:100A100003DDFFF7C3FF012010BD54487C38006898
:100A20000028F2D15149086000BFF5E710B5002059
:100A30004E4908604C48006820F440604A4908600C
:100A40000846006840F48060086000204849C1F80A
:100A50009402022004F0DEF90120444908600220DB
:100A600004F0D8F900204249C1F8900210BD10B539
:100A700000203E4908603C48006820F440603A4944
:100A800008600846006840F480600860012038492A
:100A9000C1F89402022004F0BDF901203349086036
:100AA000022004F0B7F900203149C1F8900210BDCE
:100AB00070B504462C48006820F440602A4908605C
:100AC0000846006840F480600860002027490860FC
:100AD000002517E0E0092549091D08606006040E9D
:100AE000022004F097F901202149C1F89002022068
:100AF00004F090F900201D490860022004F08AF9F2
:100B0000681CC5B2082DE5DB70BD70B50546002434
:100B10001548006820F440601349086008460068E2
:100B20000860002616E0002010490860022004F04A
:100B300071F901200E49C1F890026006040E0B48BD
:100B40007C38006808B1601CC4B2012004F062F96E
:100B5000701CC6B2082EE6DB15B9FFF788FF01E06E
:100B6000FFF764FF204670BD000002409002404243
:100B70000000404238B50446F74890F82400C0B160
:100B800014B10220009001E000200090F24A1268A7
:100B9000D17BF14A526810786B460122FFF77DFE47
:100BA00010B14FF0FF3038BD9DF80010EA48417495
:100BB00023E0E948807A10B94FF0FF30F3E724B121
:100BC000E548407C08B10020EDE714B10120009019
:100BD00001E000200090E04A1268D17BDE4A5268B2
:100BE00010786B460122FFF758FE10B14FF0FF302E
:100BF000D9E79DF80010D84841740020D3E738B5F4
:100C000000241FE0D4480068C07AA04204D0D24833
:100C10000068407DA04200D112E0CF4949680878C1
:100C20006B4601222146FFF777FD10B14FF0FF30F0
:100C300038BD9DF800202146C8A005F0B1FF00BFD7
:100C4000601CC4B2C44840680079A042DADC0020CD
:100C5000EEE770B504460D46BF480068C07AA04272
:100C600004D0BD480068407DA04202D14FF0FF3063
:100C700070BDB94840680079A04202DC4FF0FF30F7
:100C8000F6E7B549496808782B4601222146FFF767
:100C900043FDEDE738B50446AF4890F82300A04285
:100CA00001D1002038BD14B13020009001E00020B7
:100CB0000090A948807C20B19DF8000040F002001F
:100CC0000090A54890F8220020B19DF8000040F067
:100CD00080000090A04A1268117D9F4A52681078E7
:100CE0006B460122FFF7D9FD10B14FF0FF30D9E775
:100CF000994880F823400020D4E738B5044604F032
:100D0000700010B10120009005E014B100200090A7
:100D100001E040200090904A1268917C8E4A52680F
:100D200010786B460122FFF7B8FD20B100218A48F8
:100D30008172481E38BD9DF8000020F040018648B1
:100D400001730020009004F0400020B99DF80000DD
:100D500040F00400009004F0200020B99DF800004D
:100D600040F00200009004F0100020B99DF800004F
:100D700040F00100009004F0080020B99DF8000048
:100D800040F038000090744A1268D17C724A526870
:100D900010786B460122FFF780FD20B100216E48DC
:100DA0008172481EC6E724B1082C02D00020FFF74C
:100DB00071FF6948847200210175322004F072F8D5
:100DC0000020B7E738B504466348807CA04201D1D3
:100DD000002038BD002C46D05F4A126811795E4A67
:100DE000526810786B460122FFF796FC10B14FF065
:100DF000FF30EEE79DF8000020F020000090564AFA
:100E000012681179544A526810786B460122FFF734
:100E100044FD10B14FF0FF30DBE7032004F042F84F
:100E2000022000904C4890F8220020B19DF800006C
:100E300040F080000090484890F8230020B19DF8D1
:100E4000000040F030000090434A1268117D424A91
:100E5000526810786B460122FFF71FFD002851D021
:100E60004FF0FF30B5E73C4A126811793A4A5268B0
:100E700010786B460122FFF74FFC10B14FF0FF30A6
:100E8000A7E73548807A00F0010028B19DF80000FE
:100E900040F02000009004E09DF8000020F02000C9
:100EA00000902D4A126811792B4A526810786B46CF
:100EB0000122FFF7F2FC10B14FF0FF3089E7032069
:100EC00003F0F0FF244890F8220010B18020009039
:100ED00001E000200090204890F8230020B19DF808
:100EE000000040F0300000901B4A1268117D1A4A41
:100EF000526810786B460122FFF7CFFC10B14FF01B
:100F0000FF3066E714488474002062E708B5124891
:100F1000807A10B94FF0FF3008BD002000900E4AD3
:100F20001268D17B0C4A526810786B460122FFF799
:100F3000B4FC10B14FF0FF30EEE7074A1268517968
:100F4000054A526810786B460122FFF7A6FC68B18B
:100F50004FF0FF30E0E700005800002025233578EF
:100F60003A20252335780D0A00000000F84A12685F
:100F70001179F74A526810786B460122FFF78DFC11
:100F800010B14FF0FF30C7E7F14890F82400002877
:100F900053D00C200090EE4A12681179EC4A526846
:100FA00010786B460122FFF778FC10B14FF0FF304C
:100FB000B2E7322003F076FFC0200090E448807A48
:100FC00000F0010020B19DF8000040F020000090EA
:100FD000DF4A12681179DE4A526810786B460122A6
:100FE000FFF75BFC10B14FF0FF3095E7D848407C2D
:100FF00010B10220009001E000200090D44A126855
:10100000D17BD34A526810786B460122FFF745FC2A
:1010100010B14FF0FF307FE700200090CC4A1268FB
:101020005179CB4A526810786B460122FFF735FCA4
:10103000002855D04FF0FF306EE704200090C44ADE
:1010400012681179C24A526810786B460122FFF784
:1010500024FC10B14FF0FF305EE7BD48807C20B922
:10106000BB48807A00F0010010B94020009001E0F8
:1010700060200090B64A12681179B54A526810781B
:101080006B460122FFF709FC10B14FF0FF3043E738
:10109000322003F007FFAE48407C10B101200090E1
:1010A00001E000200090AA4A1268D17BA84A526849
:1010B00010786B460122FFF7F0FB10B14FF0FF30C4
:1010C0002AE7A34A12685179A14A52681078A04BC6
:1010D00010330122FFF7E1FB10B14FF0FF301BE7A7
:1010E000002019E770B50446002624F00104984852
:1010F00090F8240008B1002070BD9548807A10B99E
:101100004FF0FF30F8E79248057C807A2040904904
:1011100008740846007CA04202D04FF0FF3600E081
:10112000002614B98A48007D18B10120FFF722FD7E
:1011300002E00020FFF71EFD3CB1FFF7E7FE20B103
:10114000834805744FF0FF30D6E73046D4E738B512
:1011500004467F48807A10B94FF0FF3038BDBC2C70
:1011600002DB0120009015E0622C02DB02200090DF
:1011700010E02A2C02DB032000900BE0142C02DB91
:101180000420009006E00A2C02DB0520009001E01C
:10119000062000906E48C07A9DF80010884201D168
:1011A0000020DBE76A4A12689178694A5268107831
:1011B0006B460122FFF771FB10B14FF0FF30CDE716
:1011C0009DF800106248C1720020C7E738B5044698
:1011D000282C02DD4FF0FF3038BDDCB90020FFF7CE
:1011E00059FD00208DF8000007208DF80100584AB5
:1011F0001268917C564A526810786B460222FFF7BB
:101200004CFB10B14FF0FF30E6E70021504801756C
:101210000020E1E70120FFF73DFD20208DF80000D0
:10122000012C06D100208DF801000520FFF78FFF6B
:1012300017E0052C06DC01208DF801000520FFF7E2
:1012400086FF0EE0142C06DC02208DF801000A2037
:10125000FFF77DFF05E003208DF801001420FFF764
:1012600076FF9DF80100072101EB8010C0B28DF8D8
:101270000100374A1268917C354A526810786B46F3
:101280000222FFF70AFB10B14FF0FF30A4E708215C
:101290002F48817200210173012101750020FFF7A1
:1012A00021FF002098E738B504462948807A10B914
:1012B0004FF0FF3038BD264890F8240010B14FF0B1
:1012C000FF30F7E72248007D50B134B1282C04DC10
:1012D000E0B2FFF77BFF0020ECE70020FFF776FF8E
:1012E000042C01DA042404E0B4F57A7F01DD4FF424
:1012F0007A744FF47A7090FBF4F0401EC0B2009004
:10130000134A12685178124A526810786B460122CB
:10131000FFF7C3FA10B14FF0FF30CBE79DF80000A4
:10132000401C4FF47A7191FBF0F081B20848C18102
:101330000146C9894810FFF70AFF0020BAE738B50F
:1013400004460348807A28B94FF0FF3038BD0000CA
:1013500058000020022C06D0042C07D0082C08D0FE
:10136000102C0CD108E0002000900BE00820009029
:1013700008E01020009005E01820009002E04FF0F7
:10138000FF30E3E700BFF748407A9DF80010B0EB6C
:10139000E10F01D10020D9E7F24A1268D179F14A70
:1013A000526810786B460122FFF777FA10B14FF0C0
:1013B000FF30CBE79DF80000C110EA4841720020E1
:1013C000C4E738B50446E748807A10B94FF0FF30DB
:1013D00038BDFA2C09D0B4F5FA7F09D0B4F57A7F7C
:1013E00009D0B4F5FA6F0CD108E0002000900BE0B2
:1013F0000820009008E01020009005E018200090E0
:1014000002E04FF0FF30E3E700BFD648007A9DF8D6
:101410000010B0EBE10F01D10020D9E7D14A1268EA
:101420009179D04A526810786B460122FFF735FA5D
:1014300010B14FF0FF30CBE79DF80000C010C94954
:1014400008720020C4E71CB580208DF80000C54A52
:101450001268917CC34A526810786B460122FFF7EC
:101460001CFA10B14FF0FF301CBD642003F01AFDD0
:1014700000208DF80000BB4A1268917CB94A52687E
:1014800010786B460122FFF708FA10B14FF0FF30D9
:10149000EAE7B44A1268917DB24A526810786B4606
:1014A0000622FFF739F910B14FF0FF30DCE79DF865
:1014B0000500C007400F9DF8031001F0010140EA4C
:1014C00041009DF8011001F0010140EA010494B1CE
:1014D000012C03D10121A348C17431E0022C03D1B6
:1014E0000021A048C1742BE021469FA005F058FBC5
:1014F0004FF0FF30B8E79B4A1268D178994A52689A
:1015000010786B460122FFF707F910B14FF0FF305A
:10151000AAE79DF8000000F00F042CB99C4805F0E4
:101520003FFB4FF0FF309FE7042C06D199A005F058
:1015300037FB01218B48C17402E000218948C17446
:10154000FF2188488172FF2086490872FF21854863
:101550004172C1724FF6FF71C181FF210174817424
:101560000121017380F82210002180F823104175B9
:1015700001751630016041608160163880F82410D2
:1015800080F82510C1844FF4FA60FFF71AFF10B1FC
:101590004FF0FF3068E70220FFF7D1FE10B14FF0A7
:1015A000FF3061E72A20FFF7D2FD10B14FF0FF3086
:1015B0005AE73220FFF777FE10B14FF0FF3053E7C4
:1015C0000020FFF78FFD10B14FF0FF304CE70020F7
:1015D000FFF7F8FB10B14FF0FF3045E70020FFF7B1
:1015E0008CFB002040E770477CB504460D465D4803
:1015F000807A00F0700010B94FF0FF307CBD594A7E
:101600001268117B574A526810786B460622FFF722
:1016100083F810B14FF0FF30F0E79DF801009DF81E
:10162000001040EA012000B220809DF803009DF8E0
:10163000021040EA012000B260809DF805009DF88C
:10164000041040EA012000B2A08015B12846FFF73F
:10165000CAFF0020D2E77CB504460D464148807A97
:1016600000F0080010B94FF0FF307CBD3D4A126811
:10167000517B3C4A526810786B460622FFF74CF8C3
:1016800010B14FF0FF30F0E79DF801009DF8001019
:1016900040EA012000B220809DF803009DF802106E
:1016A00040EA012000B260809DF805009DF804101A
:1016B00040EA012000B2A08015B12846FFF793FF51
:1016C0000020D2E7F8B506460C462648807A10B9C5
:1016D0004FF0FF30F8BD234A1268917B214A5268CF
:1016E00010786B460222FFF717F810B14FF0FF3069
:1016F000F0E79DF801009DF8001040EA012005B2D6
:1017000014B12046FFF76FFF16484068B0F9080093
:1017100000EE100AF8EEC00A00EE105AB8EEC00A49
:1017200070EE600A0F484068C08800EE100AB8EEFC
:10173000400A80EE801A9FED1F0A31EE000ADFEDAD
:101740001E0A20EE200ABDEEC00A86ED000A002027
:10175000C0E710B588B004461CB94FF0FF3008B0A0
:1017600010BD2BE058000020556E737570706F72BD
:1017700074656420736F6674776172652070726F30
:1017800064756374207265762025642E0A0000005B
:10179000F4AA000848616C662073656E7369746909
:1017A00076697479207061727420666F756E642E2C
:1017B0000A00000000000C4200008047206830B999
:1017C000606820B9A06810B9002008B010BDF949C0
:1017D0004968087806AB03221146FEF79DFF10B159
:1017E0004FF0FF30F1E79DF81800082101EB2010C1
:1017F00000F00F00ADF800009DF8190001EB20107B
:1018000000F00F00ADF802009DF81A0001EB201067
:1018100000F00F00ADF8040020684100BDF90000A1
:10182000403091FBF0F000B2ADF81000606841006C
:10183000BDF90200403091FBF0F000B2ADF81200AB
:10184000A0684100BDF90400403091FBF0F000B207
:10185000ADF81400D7494968087806AB062211464E
:10186000FEF75AFF10B14FF0FF30AEE79DF81900B8
:101870009DF8181040EA012000B2ADF808009DF86C
:101880001B009DF81A1040EA012000B2ADF80A00D2
:101890009DF81D009DF81C1040EA012000B2ADF833
:1018A0000C00BDF81000BDF80810084400B2ADF8F7
:1018B0001000BDF81200BDF80A10084400B2ADF8DF
:1018C0001200BDF81400BDF80C10084400B2ADF8C9
:1018D0001400BDF81000000A8DF81800BDF81000C3
:1018E000C0B28DF81900BDF81200000A8DF81A0078
:1018F000BDF81200C0B28DF81B00BDF81400000A3C
:101900008DF81C00BDF81400C0B28DF81D00A94967
:101910004968087806AB06221146FEF7BEFF10B1F3
:101920004FF0FF3051E700204FE70146A148007A11
:1019300030B1012807D0022809D003280FD10AE0CE
:10194000FA2008800EE04FF4FA7008800AE04FF4A5
:101950007A70088006E04FF4FA60088002E0002008
:10196000088000BF00BF0020704701469148407AC0
:1019700030B1012807D0022808D003280CD108E094
:10198000022008700BE00420087008E008200870AE
:1019900005E01020087002E04FF0FF30704700BFF4
:1019A0008448C07C18B108784006000E08700020FA
:1019B000F4E701467F48C07A082817D2DFE800F034
:1019C0001704070A0D101318BC20088013E06220CA
:1019D000088010E02A2008800DE0142008800AE02A
:1019E0000A20088007E00520088004E000BF00BF4F
:1019F0000020088000BF00BF0020704701466D48EE
:101A000090F8240010B14FF0FF3070476948C0894A
:101A100008800020F9E7014600200880401E70473A
:101A200001464FF0FF30704701466248007A30B1FE
:101A3000012809D002280CD0032814D10EE09FED14
:101A40005E0A81ED000A11E09FED5C0A81ED000A5B
:101A50000CE09FED5B0A81ED000A07E09FED590A5B
:101A600081ED000A02E04FF0FF30704700BF002018
:101A7000FBE701464F48407A30B1012808D00228E0
:101A80000AD0032810D10BE04FF4804008800EE00C
:101A900041F69C7008800AE04FF48050088006E010
:101AA0004FF40060088002E04FF0FF30704700BF45
:101AB0004048C07C10B10888401008800020F5E73D
:101AC00001463C48007C08700020704701463948B8
:101AD000807A10B10120087001E000200870002019
:101AE000704738B504463348807A10B94FF0FF305C
:101AF00038BD304A1268117C2E4A526810786B4605
:101B00000222FEF709FE10B14FF0FF30F0E79DF81A
:101B100001009DF8001040EA012000B22080002062
:101B2000E6E72DE9FE4F0746884692461D46DDF85A
:101B300030B0002600241F4890F8240010B1601E29
:101B4000BDE8FE8F002028701A48807A10B94FF047
:101B5000FF30F5E71748007C10B94FF0FF30EFE792
:101B60001448007C00F0400008B1B01CC6B2114817
:101B7000007C00F0200008B1B01CC6B20D48007C0B
:101B800000F0100008B1B01CC6B20A48007C00F09A
:101B9000080008B1B01DC6B2064A1268917A054A1B
:101BA000526810786B460222FEF7B6FD60B14FF026
:101BB000FF30C5E7580000200000034300008342C7
:101BC00033330342333383419DF801009DF8001005
:101BD00040EA0129B14501DA0020B1E7FA4840683E
:101BE0004088B9EB600F17DDF74A1268517CF64A5E
:101BF000526810786B460122FEF78EFD10B14FF04F
:101C0000FF309DE79DF8000000F0100020B1FFF7C5
:101C10007DF96FF0010093E75046FFF7E4FCEA4AD4
:101C20001268D17AE84A526810786B463246FEF75D
:101C300073FD10B14FF0FF3082E799FBF6F0401EC4
:101C40008BF8000000202870B4422AD0DE48007CC7
:101C500000F0080028B3601C1DF800001DF80410F7
:101C600040EA012000B2A8F80000E01C1DF80010B6
:101C7000A01C1DF8000041EA002000B2A8F80200F4
:101C8000601D1DF80010201D1DF8000041EA002015
:101C900000B2A8F80400287840F008002870A01DC1
:101CA00084B2B44213D0C848007C00F0400070B148
:101CB000601C1DF800001DF8041040EA012000B26D
:101CC0003880287840F040002870A01C84B2B442CC
:101CD00013D0BD48007C00F0200070B1601C1DF8DE
:101CE00000001DF8041040EA012000B27880287836
:101CF00040F020002870A01C84B2B44213D0B24837
:101D0000007C00F0100070B1601C1DF800001DF890
:101D1000041040EA012000B2B880287840F010009A
:101D20002870A01C84B200200AE7F8B504460F46CC
:101D30001646A54890F8240010B94FF0FF30F8BDC2
:101D4000A148807A10B94FF0FF30F8E79E4A126838
:101D5000917A9D4A526810786B460222FEF7DCFCAD
:101D600010B14FF0FF30EAE79DF801009DF8001038
:101D700040EA0125A54203DA00203070401EDEE76C
:101D8000914840684088B5EB600F17DD8E4A1268B5
:101D9000517C8D4A526810786B460122FEF7BCFCDC
:101DA00010B14FF0FF30CAE79DF8000000F01000BE
:101DB00020B1FFF7ABF86FF00100C0E7E2B2824B51
:101DC0001B68D97A804B5B6818783B46FEF7A4FC09
:101DD00010B14FF0FF30B2E795FBF4F0401E3070C9
:101DE0000020ACE70146784880F8221000207047B8
:101DF0007CB5054674494968087801AB04220D2179
:101E0000FEF78AFC08B107207CBD9DF80700C0F3EF
:101E100001109DF8041001F0E00140EAE1008DF8A6
:101E200000009DF80700C0F381009DF8051001F047
:101E3000E00140EAE1008DF801009DF8070000F0A4
:101E400003009DF8061001F0E00140EAE1008DF882
:101E50000200002427E01DF8040030B99FED5B0A62
:101E600005EB840080ED000A1BE09FED590A05EBAD
:101E7000840080ED000A0BE005EB840090ED000A81
:101E8000DFED540A20EE200A05EB840080ED000A05
:101E90001DF80400401EC0B20DF804000028EBD16C
:101EA00000BF601CC4B2032CD5DB0020ACE7F0B54A
:101EB0002DED028B83B006460F4600256846FFF7DE
:101EC00097FF002447E056F8241057F82420881A7A
:101ED000002801DB014600E0414200EE101AB8EE96
:101EE000C00ADFED3D0A80EE208A684600EB8400E0
:101EF00090ED000AB5EEC00AF1EE10FA18D068466F
:101F000000EB8400D0ED000A88EE200AF7EE000A0C
:101F100070EE608AB0EEE80A3048D0ED090AB4EEFF
:101F2000E00AF1EE10FA15DD0120A040054311E0B2
:101F30002A4890ED070AB4EEC80AF1EE10FA06DC62
:101F400090ED080AB4EEC80AF1EE10FA02D20120B0
:101F5000A0400543641C032CB5DB284603B0BDEC50
:101F6000028BF0BDF0B52DED048B81B006460F4617
:101F700000251549496808786B4603220D21FEF7B4
:101F8000CBFB20B1072001B0BDEC048BF0BD9DF868
:101F9000000000F01F008DF800009DF8010000F027
:101FA0001F008DF801009DF8020000F01F008DF861
:101FB0000200002461E056F8241057F82420881A03
:101FC00000280DDB01460CE0580000200000000056
:101FD0007B14AE3E1D5A843F00008047E89C0008F9
:101FE000414200EE101AB8EEC00A5FED050A80EE1D
:101FF000208A1DF8040068B3FE4890ED000AB8EE90
:10200000400ADFEDFD0A80EE801AF0EE418A05E01D
:102010009FEDFA0A28EE800AF0EE408A1DF80400CF
:10202000401EC0B20DF804000028F1D188EE280A45
:10203000F7EE000A30EE609AB0EEC90AED48D0ED36
:10204000060AB4EEE00AF1EE10FA15DD0120A04018
:10205000054311E0E74890ED040AB4EEC80AF1EE3A
:1020600010FA06DC90ED050AB4EEC80AF1EE10FA9B
:1020700002D20120A0400543641C032C9BDB2846B0
:1020800081E72DE9F04F87B005460C4691460120C7
:102090008DF8100000208DF81100D94A1268917C4B
:1020A000D74A5268107804AB0222FEF7F6FB20B143
:1020B0004FF0FF3007B0BDE8F08FC82002F0F2FE0D
:1020C00000208DF81000CE4A1268D17BCC4A5268AD
:1020D000107804AB0122FEF7E0FB10B14FF0FF30A7
:1020E000E8E7C74A12685179C54A5268107804ABCC
:1020F0000122FEF7D2FB10B14FF0FF30DAE7C04A01
:102100001268917CBE4A5268107804AB0122FEF737
:10211000C4FB10B14FF0FF30CCE7B94A1268D17D53
:10212000B74A5268107804AB0122FEF7B6FB10B133
:102130004FF0FF30BEE7B24A12681179B04A5268D8
:10214000107804AB0122FEF7A8FB10B14FF0FF306E
:10215000B0E70C208DF81000A94A12681179A84A3E
:102160005268107804AB0122FEF797FB10B14FF0D4
:10217000FF309FE70F2002F095FEA148806A407A69
:102180008DF810009E4A126891789D4A5268107826
:1021900004AB0122FEF781FB10B14FF0FF3089E75D
:1021A0009748806A007A8DF81000954A1268517835
:1021B000934A5268107804AB0122FEF76EFB10B10F
:1021C0004FF0FF3076E7B9F1000F07D08C48806AF6
:1021D000807A40F0E0008DF8100004E08848806AC2
:1021E000807A8DF81000864A12689179844A526884
:1021F000107804AB0122FEF750FB10B14FF0FF3016
:1022000058E7B9F1000F07D07D48806AC07A40F0E6
:10221000E0008DF8100003E07648C07A8DF81000D9
:10222000774A1268D179764A5268107804AB012255
:10223000FEF733FB10B14FF0FF303BE7B9F1000F71
:1022400002D0C82002F02EFE40208DF810006C4A0B
:10225000126811796A4A5268107804AB0122FEF7BD
:102260001CFB10B14FF0FF3024E778208DF81000F0
:10227000634A12685179624A5268107804AB0122AD
:10228000FEF70BFB10B14FF0FF3013E75949888977
:1022900002F008FE00208DF81000594A12685179AA
:1022A000574A5268107804AB0122FEF7F6FA10B1D3
:1022B0004FF0FF30FEE6524A1268917A504A526857
:1022C000107804AB0222FEF727FA10B14FF0FF306E
:1022D000F0E69DF811009DF8101040EA012B0C204B
:1022E0009BFBF0F0C6B20020A86068602860A06088
:1022F00060602060824665E0414A1268D17A404AB7
:102300005268107804AB0C22FEF706FA10B14FF0B9
:10231000FF30CFE69DF811009DF8101040EA012033
:1023200000B2ADF808009DF813009DF8121040EAC5
:10233000012000B2ADF80A009DF815009DF81410B8
:1023400040EA012000B2ADF80C00BDF90810206889
:1023500008442060BDF90A10606808446060BDF957
:102360000C10A0680844A0609DF817009DF8161096
:1023700040EA012000B2ADF800009DF819009DF878
:10238000181040EA012000B2ADF802009DF81B00D1
:102390009DF81A1040EA012000B2ADF80400BDF922
:1023A0000010286808442860BDF9021068680844D5
:1023B0006860BDF90410A8680844A8600AF101002B
:1023C00000F0FF0AB24597DB0A48D0F800C0286841
:1023D000C117090441EA1041070462460023384648
:1023E00004F0A8FB32460023CDE9020104F0A2FB71
:1023F000286007E0E89C000800B04C4554E3853FA6
:1024000058000020F848D0F800C06868C1170904D7
:1024100041EA1041070462460023384604F08AFB73
:1024200032460023CDE9020104F084FB6860EE48E7
:10243000D0F800C0A868C117090441EA1041070498
:1024400062460023384604F075FB32460023CDE98E
:10245000020104F06FFBA860E348D0F804C02168D3
:10246000C817000440EA11480F04624600233846AA
:10247000414604F05FFB32460023CDE9020104F03F
:1024800059FB2060D848D0F804C06068C11709041F
:1024900041EA1041070462460023384604F04AFB33
:1024A00032460023CDE9020104F044FB6060CE48CF
:1024B000D0F804C0A068C117090441EA104107041C
:1024C00062460023384604F035FB32460023CDE94E
:1024D000020104F02FFBA060A068002804DDA068C2
:1024E000A0F58030A06003E0A06800F58030A06017
:1024F0000020DFE538B50446BC4890F82400A0422F
:1025000001D1002038BD24B3B84890F8250010B997
:102510004FF0FF30F6E70020FEF72CFB0020FEF71F
:1025200051FCB249C88CFEF7BEFE00200090AF49B6
:10253000496808786B4601222321FEF7AEF9012194
:10254000AA4880F824100120FEF714FBFEF7DEFCF9
:1025500013E00020FEF70EFBA448007C0090A34986
:10256000496808786B4601222321FEF796F900217D
:102570009E4880F82410FEF7C9FC0020C2E72DE930
:10258000F04F8DB083460F4602200C90974890F88C
:10259000240020B10020FFF7ADFF012600E0002657
:1025A00003A8FFF7C2F905A8FFF7DFF901A8FFF7B5
:1025B00000FA02A8FFF722FA8C4890F80AA004A8B3
:1025C000FFF77EFA002407E0002239465846FFF75D
:1025D00058FD00B902E0641C022CF5DB00BF022CA0
:1025E00001D1002528E0002407E0012206A909A85E
:1025F000FFF747FD00B902E0641C022CF5DB00BFC9
:10260000022C01D1002517E006A93846FFF74FFC40
:1026100000F0FF0809A95846FFF7A4FC00F0FF09E5
:102620000025B9F1000F01D145F00105B8F1000F07
:1026300001D145F0020500BFFF206C490872FF215F
:102640006A484172C1724FF6FF71C181FF218172E8
:10265000017401210173BDF80C00FEF7B2FE9DF874
:102660001400FEF76CFEBDF80400FEF770FDBDF827
:102670000800FEF718FE5046FEF73FFB9DF81000DD
:10268000FEF730FD16B10120FFF734FF28460DB0EC
:10269000BDE8F08FF8B504460D46164616B94FF062
:1026A000FF30F8BD5148807A10B94FF0FF30F8E79D
:1026B00020128DF80000E0B28DF801009DF80100B5
:1026C00028444A4949684989884202DD4FF0FF3071
:1026D000E7E7464A1268117E444A526810786B4612
:1026E0000222FEF7DAF810B14FF0FF30D9E7EAB274
:1026F0003E4B1B68597D3D4B5B6818783346FEF7AF
:10270000CCF810B14FF0FF30CBE70020C9E7F8B5A7
:1027100004460D46164616B94FF0FF30F8BD334853
:10272000807A10B94FF0FF30F8E720128DF80000E2
:10273000E0B28DF801009DF8010028442B4949685A
:102740004989884202DD4FF0FF30E7E7274A1268E7
:10275000117E264A526810786B460222FEF79DF8D9
:1027600010B14FF0FF30D9E7EAB2204B1B68597D1A
:102770001E4B5B6818783346FDF7CEFF10B14FF063
:10278000FF30CBE70020C9E72DE9F04385B00546CF
:102790000E4690469946154890F8250020B14FF016
:1027A000FF3005B0BDE8F08316B94FF0FF30F8E711
:1027B000002428E0281B102801DD102000E0281B41
:1027C00087B2321939462046FFF764FF10B14FF047
:1027D000FF30E6E701AA39462046FFF798FF38B1F7
:1027E0004FF0FF30DDE70000E89C000858000020B3
:1027F00030193A4601A904F079FB10B16FF00100DD
:10280000CFE7E01984B2AC42D4DB4FEA28208DF840
:10281000000008F0FF008DF80100F74A1268917E71
:10282000F54A526810786B460222FEF736F810B16E
:102830004FF0FF30B5E70121EF4880F82510A0F8F0
:1028400026900020ADE70146EB4890F82400087080
:10285000002070474FF0FF30704702464FF0FF30C6
:10286000704701464FF0FF307047F8B505460F46F8
:102870001446002C70D0B5F5FF5F01DDFF2605E0A2
:10288000202D01DA012601E0C5F3471607B901271B
:10289000282C02DD4FF0FF30F8BDD748407D28BB23
:1028A000D54890F8240038B10020FFF723FE01211D
:1028B000D14880F8201003E00021CF4880F8201094
:1028C000CD481630FFF731F8CB481830FFF74DF8F8
:1028D000C9481A30FFF76DF8C7481C30FFF78EF86B
:1028E000C548817A81771F30FFF7EAF80020FEF7AC
:1028F00041F90020FEF76AFC00208DF80000BE4A76
:1029000012689178BC4A526810786B460122FDF734
:10291000C4FF10B14FF0FF30BEE740208DF800003B
:10292000B54A1268D17BB44A526810786B460122CE
:10293000FDF7B3FF00B165E08DF800608DF8017020
:10294000AD4A1268117AAC4A526810786B4602227E
:10295000FDF7A3FF08B155E047E0052002F0A2FA19
:10296000A548407A072101EBC000C0B28DF80000F5
:10297000A14A1268D179A04A526810786B460122A8
:10298000FDF78BFF00B13DE020208DF80000012C09
:1029900003D100208DF801000EE0052C03DC01209E
:1029A0008DF8010008E0142C03DC02208DF80100F2
:1029B00002E003208DF801009DF80100072101EBE2
:1029C0008010C0B28DF801008B4A1268917C8A4A4F
:1029D000526810786B460222FDF75FFF00B111E0EC
:1029E000012185484175002056E7834A16320021AF
:1029F00003E0505C00B105E0491C0C29F9D34FF00D
:102A0000FF3049E7FF207C490872FF217A48417274
:102A1000C1724FF6FF71C181FF21817201740121E2
:102A200001730146887FFEF768F97349C88AFEF78B
:102A3000C8FC7149087EFEF782FC6F49488BFEF79F
:102A400086FB6D49888BFEF72EFC6B49C87FFEF72D
:102A500049FB694890F8200010B10120FFF74AFDBA
:102A6000002165484175002016E710B588B002A91D
:102A700005A8FFF784FD0446032C43D101A8FEF707
:102A8000D3FF9DED050AB8EEC00ADDED010A20EE88
:102A9000200ABDEEC00A8DED050A9DED060AB8EECE
:102AA000C00ADDED010A20EE200ABDEEC00A8DED60
:102AB000060A9DED070AB8EEC00ADDED010A20EE18
:102AC000200ABDEEC00A8DED070A05A800F04DFAF8
:102AD0006846FEF7CEFF00200090BDF80010029877
:102AE00048430290BDF80010039848430390BDF896
:102AF000001004984843049002A800F0C9FA00208E
:102B000008B010BD0120FBE7014691F90020002A22
:102B100001DD00201EE091F90020002A01DA0420E6
:102B200018E091F90120002A01DD012012E091F95D
:102B30000120002A01DA05200CE091F90220002A88
:102B400001DD022006E091F90220002A01DA0620C8
:102B500000E00720704710B504462046FFF7D4FF79
:102B60000346E01CFFF7D0FF43EAC00083B2A01D7C
:102B7000FFF7CAFF43EA801083B2184610BD70B554
:102B80000024FDF7CBFEFEF75EFC002842D1782042
:102B9000FEF7B3F8C4B20CB1012070BD7820FEF787
:102BA000A1FAC4B20CB10220F7E76420FEF77BFB68
:102BB000C4B20CB10320F0E700F03CF9C4B20CB190
:102BC0000420EAE70D48FFF7C6FF054600F03CF990
:102BD000C4B20CB10520E0E740F2731000F085FDAF
:102BE000C4B20CB10620D8E7642000F0E7FAC4B202
:102BF00034B10720D1E700005800002084000020F5
:102C00000CB10820C9E70120FFF774FCC4B21CB165
:102C10000920C2E70A20C0E70020BEE770B52DED0D
:102C20000C8B8EB004460D461646B7EE000AF0EE49
:102C3000409A9FED7C0AB0EE408A9FED7A0AF0EE52
:102C4000408A9FED780AB0EE409A07A808A90DAB1C
:102C500003AACDE9001009A90BA800F0A5FE20B138
:102C600001200EB0BDEC0C8B70BDBDF8200000F44F
:102C7000807000287ED09DED030AB8EEC00ADFED1B
:102C80006A0A80EE201AF0EE419A9DED040AB8EE31
:102C9000C00ADFED650A80EE201AB0EE418A9DED94
:102CA000050AB8EEC00ADFED600A80EE201AF0EEE9
:102CB000418A9DED060AB8EEC00ADFED5B0A80EEA0
:102CC000201AB0EE419AB8EE000A28EE000A20EE73
:102CD000090AF0EE000A69EEA00A00EEA80A10EE5A
:102CE000101A084606F06CFF41EC1C0BB0EE4C0AC3
:102CF000F0EE6C0A05F0C4FCB0EE40BAF0EE60BA3B
:102D00009FED4A0B53EC102B51EC1B0B06F098FC7B
:102D100041EC1A0B06F002FA2060B8EE000A28EE29
:102D2000000A20EE080AF0EE000A68EEA00A00EEA3
:102D3000E80AF7EE000A30EE200A10EE101A0846F4
:102D400006F03EFF41EC1C0BB0EE000A28EE800AB4
:102D500020EE090AF0EE000A69EEA00A00EE880AE9
:102D600010EE101A084606F02BFF41EC1D0BB0EEDA
:102D70004C1A00E052E0F0EE6C1AB0EE4D0AF0EEA4
:102D80006D0A05F099FFB0EE40BAF0EE60BA9FED23
:102D9000270B53EC102B51EC1B0B06F051FC41ECB4
:102DA0001A0B06F0BBF9286029EEA90A08EE080AFA
:102DB00008EEE80A09EE490A10EE101A084606F075
:102DC000FFFE41EC1C0B28EE280A09EE890AF0EE02
:102DD000000A20EE200A10EE101A084606F0F0FE57
:102DE00041EC1D0BB0EE4C1AF0EE6C1AB0EE4D0A31
:102DF000F0EE6D0A05F060FFB0EE40BAF0EE60BA9A
:102E00009FED0A0B53EC102B51EC1B0B06F018FC3A
:102E100041EC1A0B06F082F9306001E0022020E755
:102E200000201EE7000000000000804E6666666617
:102E300066A64C4010B5C8234FF48062F74940F6AF
:102E4000F630FFF7A1FC10BD10B586B00446F4A023
:102E500000680390F3A000680290F3A0006801905E
:102E6000F2A00068009004F0030003A9085C8DF84C
:102E7000140003A8C4F3C101405C8DF8150003A839
:102E8000C4F38111405C8DF8160004F0030002A920
:102E9000085C8DF8100002A8C4F3C101405C8DF8F5
:102EA000110002A8C4F38111405C8DF8120005AA3C
:102EB000032140F22640FFF7EDFB18B14FF0FF3041
:102EC00006B010BD04AA032140F22A40FFF7E2FB3E
:102ED00010B14FF0FF30F3E701980590009804908F
:102EE00004F0040058B19DF8140040F001008DF882
:102EF00014009DF8100040F001008DF8100004F05F
:102F0000200058B19DF8150040F001008DF8150023
:102F10009DF8110040F001008DF8110004F480705C
:102F200058B19DF8160040F001008DF816009DF88C
:102F3000120040F001008DF8120005AA03214FF4A1
:102F40008860FFF7A7FB10B14FF0FF30B8E704AA85
:102F5000032140F23140FFF79DFB10B14FF0FF30ED
:102F6000AEE7B34804810020AAE71FB50446B04885
:102F7000007A00F0030054F820000190AC48007A79
:102F800000F0040010B1019840420190A848007A76
:102F9000C0F3C10054F820000290A548007A00F068
:102FA000200010B1029840420290A148007AC0F37C
:102FB000811054F8200003909D48008900F480702F
:102FC00010B10398404203909A49019880FB010197
:102FD000800F40EA810001909649029880FB011021
:102FE000820042EA917002909249039880FB01109E
:102FF000820042EA917003900198000E8DF8000063
:103000000198000C8DF801000198000A8DF802006B
:103010000198C0B28DF803006A4604214FF4747021
:10302000FFF738FB18B14FF0FF3004B010BD029825
:10303000000E8DF800000298000C8DF80100029837
:10304000000A8DF802000298C0B28DF803006A46AB
:1030500004214FF47570FFF71DFB10B14FF0FF30E6
:10306000E3E70398000E8DF800000398000C8DF83C
:1030700001000398000A8DF802000398C0B28DF891
:1030800003006A4604214FF47670FFF703FBCCE798
:1030900070B588B0064601A8FEF7EBFCBDF8040049
:1030A0000021C90341EA5045C4036148007A00F099
:1030B000030056F8200005905D48007A00F00400F7
:1030C00010B10598404205905948007AC0F3C100FC
:1030D00056F8200006905648007A00F0200010B103
:1030E0000698404206905248007AC0F3811056F884
:1030F000200007904E48008900F4807010B10798B6
:10310000404207900598C117A0FB042301FB04313E
:1031100000FB0510810041EA927005900698C117E6
:10312000A0FB042301FB043100FB0510810041EAF0
:10313000927006900798C117A0FB042301FB04318D
:1031400000FB0510810041EA927007900598000E7F
:103150008DF808000598000C8DF809000598000A04
:103160008DF80A000598C0B28DF80B000698000E85
:103170008DF80C000698000C8DF80D000698000ADA
:103180008DF80E000698C0B28DF80F000798000E5B
:103190008DF810000798000C8DF811000798000AB0
:1031A0008DF812000798C0B28DF8130002AA0C2106
:1031B0004FF42570FFF76EFA08B070BD30B585B0DA
:1031C00004461DA207CA02AB07C3C82C03DD4FF09B
:1031D000FF3005B030BDC82090FBF4F0401E85B232
:1031E000280A8DF80000E8B28DF801006A46022135
:1031F00040F21620FFF74EFA10B14FF0FF30E8E72B
:1032000002AA0C2140F6C120FFF744FA10B14FF09A
:10321000FF30DEE7064884810020DAE7109D0008D1
:103220004CCD6C000CC92C00365676002646660044
:10323000E800002009E3CA02FEF2ABC4AAF1DFDF16
:10324000BBAFDFDF0146F948808908800020704766
:10325000F0B52DED028B83B006460F4606F0070051
:1032600010B1B7F5C86F05DD4FF0FF3003B0BDEC0E
:10327000028BF0BD00EE107AB8EE400ADFEDEC0AEA
:1032800080EE208A01A8FEF770FB9DF8040002285A
:1032900006D0042817D0082828D010284CD138E0B0
:1032A0009FEDE40A28EE000ABCEEC00A10EE100AF8
:1032B00084B29FEDE10A28EE000ABCEEC00A10EECF
:1032C000100A85B23BE09FEDDD0A28EE000ABCEE55
:1032D000C00A10EE100A84B29FEDD90A28EE000A47
:1032E000BCEEC00A10EE100A85B228E09FEDD50AA8
:1032F00028EE000ABCEEC00A10EE100A84B29FED60
:10330000D20A28EE000ABCEEC00A10EE100A85B2FE
:1033100015E09FEDCE0A28EE000ABCEEC00A10EEC2
:10332000100A84B29FEDCA0A28EE000ABCEEC00A59
:1033300010EE100A85B202E04FF0FF3096E700BFB2
:1033400020128DF80800E0B28DF8090028128DF8DF
:103350000A00E8B28DF80B0006F00100A0B102AA45
:1033600002214FF4EA70FFF795F910B14FF0FF30EA
:103370007CE70DF10A0202214FF49270FFF78AF9FF
:1033800010B14FF0FF3071E706F00200A0B102AAC1
:1033900002214FF4EC70FFF77DF910B14FF0FF30D0
:1033A00064E70DF10A0202214FF49470FFF772F9FD
:1033B00010B14FF0FF3059E706F00400A0B102AAA7
:1033C00002214FF4EE70FFF765F910B14FF0FF30B6
:1033D0004CE70DF10A0202214FF49670FFF75AF9FB
:1033E00010B14FF0FF3041E700203FE738B5044609
:1033F0000020009004F0010020B19DF8000040F092
:103400003000009004F0020020B19DF8000040F070
:103410000C00009004F0040020B19DF8000040F082
:10342000030000906A4601214FF4A470FFF732F9BF
:1034300038BD38B50446012C01DA012402E0042C21
:1034400000DD0424601EC0B200906A46012140F2F3
:103450004F10FFF71FF938BD38B50446052094FB1F
:10346000F0F085B228128DF80000E8B28DF8010066
:103470006A4602214FF4EF70FFF70CF938BD38B5FA
:103480000446052094FBF0F085B228128DF8000068
:10349000E8B28DF801006A4602214FF4ED70FFF7A3
:1034A000F9F838BDF8B505460E464FF47A7095FB2D
:1034B000F0F000FB06F4200E8DF80000200C8DF8D3
:1034C0000100200A8DF80200E0B28DF803006A4680
:1034D00004214FF4AE70FFF7DDF8F8BD38B50446AF
:1034E000052094FBF0F084B220128DF80000E0B2C9
:1034F0008DF801006A4602214FF4AD70FFF7CAF85B
:1035000038BD38B50446052094FBF0F084B2201293
:103510008DF80000E0B28DF801006A4602214FF4F8
:10352000AC70FFF7B7F838BD38B5044614B94FF0A2
:10353000FF3038BD6A4604214FF45870FFF7E7F8B2
:1035400010B14FF0FF30F4E79DF8000000069DF841
:10355000011040EA01409DF8021040EA01209DF868
:103560000310084320600020E3E738B50446200E2E
:103570008DF80000200C8DF80100200A8DF8020063
:10358000E0B28DF803006A4604214FF45870FFF74B
:1035900081F838BD38B5044614B94FF0FF3038BD56
:1035A0006A4604214FF47170FFF7B1F810B14FF083
:1035B000FF30F4E79DF8000000069DF8011040EA96
:1035C00001409DF8021040EA01209DF803100843D5
:1035D00000EB8000800020600020E0E738B5044662
:1035E0001420B4FBF0F4200E8DF80000200C8DF8B0
:1035F0000100200A8DF80200E0B28DF803006A464F
:1036000004214FF47170FFF745F838BD38B5044612
:1036100004B320208DF8000028208DF80100302010
:103620008DF8020038208DF8030018E0E800002033
:10363000000048430000804600004046000000466D
:103640000000C045000080450000404500000045E6
:103650000000C044A3220421684603F092FC6A469D
:10366000042140F69E20FFF715F8FDF74FFC38BD0A
:1036700038B5044664B1C0208DF80000C2208DF832
:103680000100C4208DF80200C6208DF8030004E07C
:103690008B220421684603F074FC6A46042140F63C
:1036A0009820FEF7F7FFFDF731FC38BD3EB5044624
:1036B0006CB1FDA1D1E900208968CDE9002002911B
:1036C0006A4609214FF49760FEF7E4FF3EBDF9A278
:1036D000D2E900109268CDE9010200916A46092101
:1036E0004FF49760FEF7D6FFF0E73EB504460220A0
:1036F0008DF80000CA208DF80100E3208DF802004B
:1037000009208DF803006A4604216820FEF7C2FFF5
:10371000A3208DF8000004F0400048B1C0208DF8CF
:103720000100C8208DF80200C2208DF8030006E0D9
:10373000A3208DF801008DF802008DF8030004F439
:10374000C07048B1C4208DF80400CC208DF805006D
:10375000C6208DF8060006E0A3208DF804008DF841
:1037600005008DF80600A3208DF807008DF80800ED
:103770008DF809006A460A2140F6A720FEF78AFF65
:1037800004F0030018B120208DF8000002E0D820DA
:103790008DF800006A46012140F6B620FEF77AFF58
:1037A00004F0200018B10120FFF780FF02E00020A4
:1037B000FFF77CFF04F4C07008B304F4807060B1BC
:1037C000B2208DF800008B208DF80100B6208DF816
:1037D00002009B208DF803000BE0B0208DF8000064
:1037E00080208DF80100B4208DF8020090208DF823
:1037F00003006A46042140F6A220FEF74BFF04F0C6
:10380000010020B3F8208DF800006A4601214FF432
:103810000B60FEF73FFFFA210720FFF719FD072095
:10382000FFF7E4FD0120FFF704FE6420FFF714FE1C
:103830004FF4FA70FFF723FEC821A148FFF732FECC
:103840002820FFF74BFE0A20FFF75BFE08E0D82098
:103850008DF800006A4601214FF40B60FEF71AFF55
:1038600004F0020018B1D9208DF8000002E0D82041
:103870008DF800006A46012140F23D70FEF70AFF14
:1038800004F0040018B10120FFF7F2FE02E000206E
:10389000FFF7EEFE04F0100018B10120FFF7B6FEAE
:1038A00002E00020FFF7B2FE44F00800854948819D
:1038B000FDF72CFB00208349887304F0400018B109
:1038C0000846807B801D887304F4C07020B17D4859
:1038D000807B801D7B49887304F0140020B17948F7
:1038E000807B10307749887304F0030020B175485D
:1038F000807B001D7349887300203EBD01467148DE
:1039000040890880002070472DE9F0410446E078A6
:1039100000F0C006E07800F03F05607800F001009C
:1039200098B1EF102846E91705EB5171C910A5EBC6
:10393000C101491C01F0FF086248006820B16148DC
:10394000414602683846904700BF607800F00800A2
:1039500030B15C48406818B1B0115A4A5168884784
:103960000020BDE8F08110B586B0044656A207CA13
:1039700003AB07C357A207CA8DE80700012C09D083
:10398000022C0ED103AA0B2140F68220FEF782FE04
:1039900006B010BD6A460B2140F68220FEF77AFE83
:1039A000F6E74FF0FF30F3E72DE9F04F8DB0074613
:1039B000884615469946DDE9166B002400203080C4
:1039C0004049887B5A4605A9FEF7AFF918B1601E39
:1039D0000DB0BDE8F08F3B48807A00F0140000285D
:1039E00061D09DF8140000069DF8151040EA0140D2
:1039F0009DF8161040EA01209DF817100843286032
:103A00009DF8180000069DF8191040EA01409DF845
:103A10001A1040EA01209DF81B10084368609DF8C9
:103A20001C0000069DF81D1040EA01409DF81E1084
:103A300040EA01209DF81F100843A8609DF820006F
:103A400000069DF8211040EA01409DF8221040EA4E
:103A500001209DF823100843E86004F11000C4B26F
:103A6000286800140190686800140290A868001487
:103A70000390E8680014049001984043029901FB08
:103A80000100039901FB0100049901FB010ABAF14D
:103A9000706F02DBBAF1885F22DDFDF737FA002094
:103AA0003080401E94E721E0B8AAB38DB4980D355C
:103AB0005D000000B8AAAAAAB088C3C5C70000006C
:103AC00009E3CA02E8000020D8B1B9F38BA391B68C
:103AD00009B4D900DAB1B9F38BA391B6DAB4DA003C
:103AE000B6F9000040F48070308000BF3448807A1E
:103AF00000F0400020B305A9601C085C095D40EAA5
:103B0000012000B2A8F8000005A9E01C095C05AA84
:103B1000A01C105C41EA002000B2A8F8020005A930
:103B2000601D095C201D105C41EA002000B2A8F86D
:103B30000400A01DC4B2B6F9000040F008003080B7
:103B40001F48408900F4C07008B305A9601C085CD8
:103B5000095D40EA012000B2388005A9E01C095C3B
:103B600005AAA01C105C41EA002000B2788005A9DB
:103B7000601D095C201D105C41EA002000B2B88085
:103B8000A01DC4B2B6F9000040F0700030800C48AF
:103B9000807A00F0030018B105A90819FFF7B4FEF8
:103BA0004846FDF720FD002012E701460448016069
:103BB0000020704701460248416000207047000025
:103BC000E80000201CB50121022001F0E3FD4FF4C4
:103BD0007040009001208DF8040000208DF8060050
:103BE00003208DF8050002208DF8070069465B4828
:103BF00001F032FB1CBD0146002901DA4842704742
:103C00000846FCE700B503460A46002B07DA012008
:103C10005349086000205349C1F8B0020FE0002B5F
:103C200007DD00204E49086001204E49C1F8B0026E
:103C300005E000204A4908604A49C1F8B002184628
:103C4000FFF7D9FF48494863002A08DA00204449B1
:103C5000091D086001204349C1F8BC0211E0002A97
:103C600008DD01203E49091D086000203D49C1F8DA
:103C7000BC0206E000203A49091D08603949C1F834
:103C8000BC021046FFF7B7FF3749886300BD00202C
:103C90003349086001203349C1F8B0023049091D99
:103CA00008600020091D086041F270702E49886389
:103CB0004863704701202A49086000202949C1F85B
:103CC000B0022749091D08600120091D0860642011
:103CD00025498863486370474FF4FA5023490968BF
:103CE0004242914202DA4142204A11602049096869
:103CF0004242914202DA41421D4A11601B49096861
:103D0000814201DD1949086019490968814201DDD4
:103D1000174908607047DFED170AB4EEE00AF1EECC
:103D200010FA0AD3DFED140AB4EEE00AF1EE10FA4D
:103D300003DC1248006801280FD100200B490860FD
:103D40000B490860064908600649C1F8B0020449F9
:103D5000091D08600349C1F8BC0270470004024015
:103D6000B4824042008040420040014000000020F8
:103D700004000020000020C200002042400000207B
:103D800030B58BB004460D460121080401F05CFDFE
:103D90000121084601F0FEFC03220221244801F023
:103DA000E6FA03221146224801F0E1FA0C200990BC
:103DB00002208DF8280003208DF8290000208DF8BE
:103DC0002A0001208DF82B0009A9194801F044FAB6
:103DD000A8B2ADF818000020ADF81A000794ADF8AD
:103DE000200006A9134802F000F96020ADF8040095
:103DF0000120ADF806000020ADF8100001A90D4823
:103E000002F088F901A90B4802F0BDF90821094820
:103E100002F00DFB0821074802F012FB01210548C2
:103E200002F04EF90121034802F068F90BB030BDF1
:103E3000000002400040014070B52DED088B0446A3
:103E40000D46F0EE408A6019FFF7D5FE00EE100A2D
:103E5000B8EEC00AB0EE40AAFB480068012803D0C3
:103E6000FA480068012820D19FEDF90A80EE0A8AFD
:103E700018EE100A05F0A4FE41EC1B0B9FEDF50BAC
:103E800053EC102B05F0A0FB03D29FEDF40AB0EE2B
:103E9000408AB0EE080AB4EEC08AF1EE10FA0ADDEC
:103EA000B0EE080AB0EE408A05E09FEDED8A9FED86
:103EB000ED0AB0EE40AAE448006801280BD1EA48B8
:103EC00090ED000AB8EEC00A30EE480ABDEEC00A16
:103ED00080ED000A12E0DD48006801280BD1E248BD
:103EE00090ED000AB8EEC00A30EE080ABDEEC00A36
:103EF00080ED000A02E00020DB4908609FEDD90A4E
:103F000078EEC09AB1EE690AD848D0ED000A20EEEA
:103F1000200AB0EE409AD44890ED000AB8EEC00AEC
:103F200039EE000AB0EE409ABDEEC90A10EE100A52
:103F3000BDEC088B70BD70B52DED088B04460D46A9
:103F4000601900EE100AB8EEC00AC94880ED000AF8
:103F5000C848006801280DD1C548D0ED000AC64800
:103F600090ED000AB8EEC00A30EEC00AC04880EDFD
:103F7000000A19E0C148006801280DD1BC48D0ED05
:103F8000000ABD4890ED000AB8EEC00A30EE800A83
:103F9000B74880ED000A07E0601900EE100AB8EE9D
:103FA000C00AB34880ED000AB548006805F008FE75
:103FB00041EC190B9FEDB30B53EC102B05F040FBBC
:103FC00041EC180B05F0AAF8AD490860A848006854
:103FD00005F0F6FD41EC1B0B9FEDAC0B53EC102BE9
:103FE00005F02EFB41EC190BA548006805F0E8FD33
:103FF00041EC1A0B53EC192B05F0C2F841EC180BED
:1040000005F08CF89E490860084690ED000AA1482A
:10401000D0ED000A20EE200A9F4880ED000A90EDC6
:10402000000ABDEEC00A10EE100ABDEC088B70BD90
:1040300030EE602AF0EE421A984991ED002A22EE05
:10404000212A9749D1ED002A02EE812ABDEEC22A2B
:1040500012EE100A704710B564E0924A92499348F4
:10406000FCF7CBFB9048B0F9000000EE100AB8EE68
:10407000C01A8F48D0ED000A8E4890ED000AFFF775
:10408000D7FF8D4908608D4801688D480068FFF7AB
:1040900052FF8C4908608348B0F9000000EE100A16
:1040A000B8EEC00A8548016885480068FFF7C4FE7D
:1040B0008549086064480068012803D063480068A7
:1040C000012814D17C4800687E490968401A7E495D
:1040D000096808447D49086077480068794909689B
:1040E000401A79490968401A794908600DE0724818
:1040F000006874490968401A744908606E4800688D
:1041000070490968401A72490860FFF7E5FD704878
:1041100001686E480068FFF775FD664890ED000A7B
:10412000FFF7F9FD6B4A6C496248FEF777FD0028FE
:1041300093D110BD10B500F017FE0446002C6FD0CF
:10414000A22C5FD008DC022C60D0222C29D0622C5B
:104150000BD0902C62D132E0A82C14D0C22C27D0E6
:10416000E02C3ED0E22C59D154E00F2042490860A7
:104170000120404908600020344908603249086045
:104180003E4908604BE00F203B49086001203B4955
:10419000086000202D4908602B49086035490860F7
:1041A0003DE001202849086000202849086036E0E9
:1041B0000120264908600020234908602FE02E488E
:1041C00000685A2803DC2C4800685A2803D15A207A
:1041D0002949086004E028480068401C2649086016
:1041E0001DE025480068002802DB2348006818B954
:1041F00000202149086004E01F480068401E1E4955
:1042000008600CE001203549086008E000203349CF
:10421000086004E032A002F0C3FC00E000BF00BF71
:1042200010BD10B500243048008800F4004000287C
:104230005ED02D48047800202C49085508460078A7
:104240003138172855D255E03000002034000020C6
:1042500000004842333333333333E33F9A99193FF5
:104260006666663F0000000028000020AC000020C9
:10427000B4000020380000202C0000203C0000206A
:10428000B8000020666666666666E63F3333333301
:104290003333D33FA8000020B0000020A00000204E
:1042A000A40000202600002024000020220000207E
:1042B0009C00002010000020900000200C00002036
:1042C000080000209400002098000020000000203A
:1042D00004000020180000201400002040000020EE
:1042E0000AB1DCD5CF0A0000BC0000208802002003
:1042F00097E091E0DFE800F00C1E3A4B595D6B6FE0
:104300008B909090909090902C9064907D90520023
:10431000444800685A2803DC424800685A2803D100
:104320005A204049086004E03E480068401C3D496E
:10433000086072E00F203B49086001203A4908609C
:1043400000203A4908603A4908603A49086064E048
:104350000F203449086001203349086000203349A8
:104360000860334908603349086056E02D4800680A
:10437000002802DB2B48006818B900202949086092
:1043800004E028480068401E2649086045E00120F6
:10439000274908600020254908603EE001202449A3
:1043A000086000202149086037E0002022490860A9
:1043B00033E001201D49086000201D4908602CE001
:1043C00001201A49086000201949086025E00120F1
:1043D0001949086021E00F201249086001201549A1
:1043E0000860002011490860114908600E49086002
:1043F00013E00F200B49086001200E4908600020DF
:104400000A4908600A4908600749086005E0AFF2F8
:10441000301002F0C5FB00E000BF00BF00200749DC
:10442000088010BD2C00002038000020340000203F
:10443000300000203C00002040000020BC00002094
:1044400000B589B00121084601F0EDF901210846C7
:1044500001F0A0F903208DF8090002208DF8080072
:1044600001208DF80A000320019001A97F4800F087
:10447000F3FE012200217D4800F079FF0122114660
:104480007A4800F074FF06A801F0E3FD0020ADF8C3
:1044900018004FF6FF7007900020ADF82000ADF82F
:1044A0001A0006A94FF0804001F09FFD00231A4634
:1044B00003214FF0804002F00CFB03A802F0A3F9A7
:1044C0000A20ADF8140003A9400702F065F90121A4
:1044D000880702F03FFA01221146900702F026FAFF
:1044E00000214FF0804001F0C9FD0121880701F053
:1044F00005FE09B000BD00B589B00121084601F0F4
:1045000049F90121022001F08EF901A800F0ECFE2A
:10451000C020019003208DF8090002208DF80800CA
:1045200001208DF80A0001A9504800F095FE0222F2
:1045300006214E4800F01BFF022207214B4800F0E5
:1045400016FF06A94A4801F050FD06A801F081FDBA
:104550000020ADF818004FF6FF7007900020ADF86E
:104560002000ADF81A0000231A460321404802F04B
:10457000B0FA03A802F047F90A20ADF8140003A925
:104580003B4802F009F90121394802F0E3F9012220
:104590001146374802F0CAF90021354801F06EFD96
:1045A0000121334801F0AAFD09B000BD01460229EE
:1045B00002D0032912D108E04FF08042526A10B2B3
:1045C00000224FF080435A620AE0294A24321268DE
:1045D00010B20022264B24331A6001E0002000BFF5
:1045E00000BF70477FB505460C460121042001F04D
:1045F0001AF90295ADF804400020ADF80C00ADF8B2
:10460000060001A91B4801F0F0FC012211461948DF
:1046100002F08CF90121174801F070FD1E208DF881
:10462000000001208DF8010003208DF80200012018
:104630008DF80300684600F01EFD7FBD10B5012116
:104640000C4802F08AF901280ED10121094802F034
:1046500095F90220FFF7AAFF4042074908600320AE
:10466000FFF7A4FF0549086010BD000000000240EC
:104670000004004000080040080000200C0000205A
:104680007CB50A2601250121242001F083F80120B0
:10469000009000208DF8040003208DF80500012013
:1046A0008DF807006946844800F0D6FD4020009050
:1046B00001208DF8040000208DF8060003208DF8FD
:1046C000050001208DF8070069467C4800F0C4FD14
:1046D00040217A4800F03CFE4FF4165000F07EF97D
:1046E00032E00120764908600A2000F0DBFB75A06B
:1046F00000F0D6F900207549C1F8980200240AE0BC
:104700007348008800F4004000B106E0052000F086
:10471000C9FB601CC4B20A2CF2DB00BF6C480088E5
:1047200000F4004080B16A4805780020684908809C
:10473000042D09D1674800784F2805D16548407895
:104740004B2801D1002504E03000A6F10101CEB2D2
:10475000C7D100BF06B9012528467CBD70B50F261C
:1047600030E00120564908600A2000F09BFB5AA067
:1047700000F096F900250AE00A2000F093FB544867
:10478000008800F4004000B103E0681CC5B2142D9D
:10479000F2DB00BF00204A4908604D48008800F461
:1047A000004078B14A4804780020494908800D2C1F
:1047B00008D1484800782B2804D146488079303801
:1047C000C4B204E03000A6F10101CEB2C9D100BFED
:1047D00006B9FF24204670BD2DE9F04105460F279C
:1047E0002FE00120364908600A2000F05BFB2946D3
:1047F0003CA000F055F900203449C1F89802002689
:104800000AE03348008800F4004000B106E00520CB
:1048100000F048FB701CC6B2142EF2DB00BF2C481F
:10482000008800F4004060B129480478002028493D
:104830000880042C05D1274800784F2801D1002496
:1048400004E03800A7F10101CFB2CAD100BF07B917
:10485000FF242046BDE8F08170B5044601201849C8
:1048600008600A2000F01EFB21461EA000F018F987
:1048700000260AE01648008800F4004000B106E077
:104880000A2000F00FFB701CC6B2322EF2DB00BF14
:1048900000200B4908600E48008800F4004048B131
:1048A0000B48057800200A4908800A4948550FA09E
:1048B00002F076F970BD00000008024000140240CA
:1048C0009882424241540D0A00000000008042429A
:1048D000BC0000208802002041542B524F4C453F21
:1048E0000D0A000025730D0A000000000D0A257353
:1048F0000000000010B501211E4802F02EF868B13A
:104900001D48008840F400401B49088001211948D7
:1049100002F034F80021174801F0F0FB10BD7FB51C
:1049200005460C460121202000F07DFF0195ADF8E1
:1049300000400020ADF80800ADF8020069460D48BF
:1049400001F053FB012211460A4801F0EFFF01215B
:10495000084801F0D3FB37208DF80C0000208DF8BB
:104960000D0001208DF80E008DF80F0003A800F057
:1049700082FB7FBD00140040BC00002010B540F257
:104980002551594801F03AFA00B3574801F074F93B
:10499000C4B25648008800F40040B8B953480088B3
:1049A000B0F5C87F13DA0021514801F067FB4F488A
:1049B000008818B901214E4801F0A0FB4B4801883E
:1049C0000088401C494A10804A48445405E0474842
:1049D000008840F400404549088010BD10B588B0FB
:1049E0000446414801F02AF80121022000F0D2FEDD
:1049F0000121880400F017FF4FF440600590022069
:104A00008DF818008DF8190000208DF81A0001208B
:104A10008DF81B0005A9384800F01EFC07220B2169
:104A2000354800F0A4FC07220A21334800F09FFC1F
:104A300001940020ADF80800ADF80A00ADF80C00B4
:104A4000ADF810000C20ADF80E0001A9264801F0C9
:104A50005CF8012240F22551234801F094F901212C
:104A6000214801F0DAF827208DF81C0002208DF88B
:104A70001D0003208DF81E0001208DF81F0007A8DF
:104A800000F0F9FA42F2CF016320FFF748FF00215E
:104A9000174801F033FB00201449088008B010BD0E
:104AA0000FB438B505A800901448009A049902F094
:104AB00065F800200090114802F044FA85B2002405
:104AC0000DE000BF4021084801F082F90028F9D02C
:104AD0000A48015D044801F0CBF8601C84B2AC4286
:104AE000EFDB38BC5DF814FB00480040BC00002040
:104AF000001400408802002000040240F80000205A
:104B000000B589B00121084600F044FE01210846A5
:104B100000F09AFE4FF48070079002208DF820007C
:104B200000208DF8220003208DF8210001208DF84F
:104B3000230007A9A34800F08FFB01220821A14808
:104B400000F015FCA720ADF80C000020ADF80E0019
:104B500042F2107004900020ADF8140003A99A48A6
:104B600001F043FA0020ADF80000ADF8020001208A
:104B7000ADF804000020ADF806000320ADF80800F1
:104B80006946914801F008FE012203218E4801F098
:104B9000CDFE01218C4801F0B1FA1B208DF81800E0
:104BA00001208DF8190003208DF81A0001208DF8DE
:104BB0001B0006A800F05FFA19208DF818000120EC
:104BC0008DF8190002208DF81A0001208DF81B00C5
:104BD00006A800F050FA09B000BD10B501217A48CE
:104BE00001F0BBFE01282BD17848007800F080004E
:104BF00030B37648007820F01000744908700846F9
:104C0000007800F00F0020B90846007840F040001E
:104C100008706E48007800F00F000E2805DA6B4827
:104C20000078401C694908700AE06848007820F064
:104C30008000664908700846007800F0F0000870AF
:104C40000121614801F09AFE10BD10B502215E48B5
:104C500001F083FE012810D15D48006870B1022187
:104C6000594801F066FC0021574801F007FA5748FF
:104C7000007840F010005549087070E0524801F08B
:104C800009FE5449088000214F4801F052FC4F486A
:104C9000007800F0100000285BD04C48007800F04D
:104CA0008000E8B34B480088B0F5967F0DDD494899
:104CB0000088B0F5487F08DA474800684000464958
:104CC000086008460068086043E042480088B0F584
:104CD000AF6F0FDD3F480088B0F5E16F0ADA3E485C
:104CE000006840003C4908600846006840F0010048
:104CF00008602EE03748008840F69801884228DD99
:104D00003448008840F62821884222DA3348007867
:104D1000401C324908702D48007800F0F00000E097
:104D200002E02A49087014E02A48008841F268012C
:104D300088420EDD2748008841F25C21884208DA6B
:104D40002248007840F08000204908700020234964
:104D500008701E48007820F010001C4908700221DD
:104D6000194801F00BFE10BD10B50020174B1B7841
:104D700003F040032BB3184B1B68190E164B1B682E
:104D8000C3F30742D343DBB28B420BD151B9124B71
:104D90001B88C3F30721104B1A78D343DBB28B4235
:104DA00000D1084620B1094B1B7803F0800343B9BA
:104DB000064B1B7823F04003044C23700023074C60
:104DC000237010BD0000024000000140C000002020
:104DD00020024042C2000020C4000020C800002081
:104DE00010B504466FF0040000F092F9E11704EBEF
:104DF0005171C1F3C701394A11701046007800EBB8
:104E00004001C1EBC0104FF6FF7101EAC000344908
:104E1000088010BD0146314A12784A434FF0E02322
:104E20005A6100229A611A46126942F001021A611F
:104E300000BF4FF0E022106900F001021AB100F447
:104E40008032002AF5D04FF0E022126922F00102F0
:104E50004FF0E0231A6100229A6170470146204A10
:104E600012884A434FF0E0235A6100229A611A46A1
:104E7000126942F001021A6100BF4FF0E02210698E
:104E800000F001021AB100F48032002AF5D04FF090
:104E9000E022126922F001024FF0E0231A610022A1
:104EA0009A61704770B504464FF4077094FBF0F0B8
:104EB000C6B24FF4077094FBF0F100FB114085B2CD
:104EC00005E04FF40770FFF7C9FF701EC6B2002E51
:104ED000F7D115B12846FFF7C1FF70BDCA00002009
:104EE000CC00002000BF704700BF4C4A128802F07F
:104EF0004002002AF9D0C2B2484B9A80704710B5E0
:104F000088B004460121084600F044FC012110202D
:104F100000F09AFC07220921414800F028FA0722F4
:104F20000A213F4800F023FA4FF4C06006900220A7
:104F30008DF81C008DF81D0000208DF81E0001204A
:104F40008DF81F0006A9364800F086F9029400206B
:104F5000ADF80C00ADF80E00ADF81000ADF814007F
:104F60000C20ADF8120002A92C4800F0CEFD012162
:104F70002A4800F052FE012240F22551274800F055
:104F800002FF25208DF8040003208DF805008DF820
:104F9000060001208DF8070001A800F06CF808B0A9
:104FA00010BD10B540F225511C4800F027FF10B38A
:104FB0001A4800F061FEC4B21A48008800F40040AC
:104FC000C8B91848008800F4804060B10A2C03D0AA
:104FD00000201449088020E01248008840F4004076
:104FE0001049088019E00D2C06D10E48008840F4C5
:104FF00080400C49088010E00A480088C0F30D008A
:1050000009490C5407480088401C06490880084696
:105010000088C72801DD0020088010BD0010014075
:1050200000000240D40000201804002009488047F6
:1050300009480047FEE7FEE7FEE7FEE7FEE7FEE77A
:10504000FEE7FEE7FEE7FEE704480549054A064B92
:105050007047000051040008890100084005002045
:10506000400B002040070020400700203249014348
:10507000324A1160704770B5002100230F22C478B6
:105080001CB32E4C246804F4E064C4F5E064C4F35B
:105090000721C1F10404E3B20A4144789C40E1B223
:1050A0008478144021430C07210E254C0578615566
:1050B000047804F01F050124AC4005786D11AD00A3
:1050C00005F1E025C5F8004109E0047804F01F056A
:1050D0000124AC401B4D0678761145F8264070BD82
:1050E000194A0A400243154B1B1F1A60704739B119
:1050F000124A121D12680243104B1B1D1A6006E073
:105100000E4A121D126882430C4B1B1D1A60704719
:10511000042808D14FF0E021096941F004014FF063
:10512000E022116107E04FF0E021096921F004015C
:105130004FF0E022116170470000FA050CED00E02D
:1051400000E400E080E100E080FFFF1F10B50446AE
:105150009848844208D10121084600F086FB0021CE
:10516000012000F082FB76E09348844208D10121BF
:10517000022000F07AFB0021022000F076FB6AE0BA
:105180008E48844208D10121042000F06EFB0021EA
:10519000042000F06AFB5EE08948844208D10121C6
:1051A000082000F062FB0021082000F05EFB52E0C6
:1051B0008448844208D10121102000F056FB0021D0
:1051C000102000F052FB46E07F48844208D10121C4
:1051D000202000F04AFB0021202000F046FB3AE0AE
:1051E0007A48844208D10121402000F03EFB002192
:1051F000402000F03AFB2EE07548844208D101219E
:10520000802000F032FB0021802000F02EFB22E005
:105210007048844208D10121801500F026FB00214E
:10522000A01500F022FB16E06B48844208D1012152
:10523000401500F01AFB0021601500F016FB0AE093
:105240006648844207D10121001500F00EFB0021C1
:10525000201500F00AFB10BDF0B50A46002100231E
:10526000002400BF3DE0012505FA01F3156805EAB9
:1052700003049C4234D105684F000326BE40B54369
:10528000056015794E00B54006683543056015790F
:10529000012D02D01579022D16D185684F00032605
:1052A000BE40B543856055794E00B54086683543AC
:1052B0008560456801268E40B5434560456896790E
:1052C0008E40B6B235434560C5684F000326BE40E8
:1052D000B543C560D5794E00B540C6683543C56055
:1052E000491C1029BFD3F0BD4FF6FF7101600021AA
:1052F000017141718171C171704708B54FF48032FD
:105300000092009A0A430092009AC261C161009A19
:10531000C261C2690092C269009208BD02460020C3
:1053200013690B400BB1012000E0002070470146DB
:10533000086980B270470246002053690B400BB1E8
:10534000012000E0002070470146486980B27047A4
:1053500001837047418370470AB1018300E04183B4
:1053600070474161704742694A4042617047F0B5F9
:10537000002300244D07ED0E02FA05F3CE1000F1D4
:10538000200555F826504E07F70E0F26BE40B543B0
:10539000CF1000F1200646F82750CE1000F120056E
:1053A00055F8265045EA0304CE1000F1200545F8D3
:1053B0002640F0BD00000240000402400008024008
:1053C000000C02400010024000140240001802408D
:1053D000001C02400020024000240240002802403D
:1053E000F948006840F00100F74908600020F649DC
:1053F00008310860F4480068F4490840F249086040
:10540000F348091D0860F348EF4984310860F0480B
:105410001038091D0860EC48006820F48020EA4933
:1054200008600020E8490C310860E7498C310860C9
:1054300070470021E44A921C1170114608707047B1
:1054400010B501460022002300204A11012A02D192
:10545000DD4C236808E0022A03D1DB4C703423685A
:1054600002E0D94C7434236801F01F0201249440F7
:105470001C400CB1012000E0002010BD38B5002018
:1054800000900024002500BF3120FFF7D9FF05461A
:105490000098401C00900098B0F5A04F01D0002D5E
:1054A000F2D03120FFF7CCFF08B1012400E0002446
:1054B000204638BD01460020C34A106820F0F8009D
:1054C00040EAC10010607047C3490860704700217E
:1054D000BD4A703211701170012802D004280AD11F
:1054E00004E00121B84A7032117005E00521B64A86
:1054F0007032117000E000BF00BF7047B74908600C
:10550000704770B5049C41EA82150126C6EB53062C
:1055100045EA0645054345EA0465AB4E361D356050
:1055200070BDAD4908667047820142EA0172A64B20
:1055300084331A607047A8498866704710B58301A4
:1055400043EA016343EA02739F4C8834236010BD31
:10555000A14908677047A049C86470470246002007
:10556000994B0833186820F0EC6042EA01031843B5
:10557000954B08331860704702460020924B083361
:10558000186820F0784042EA010318438E4B083334
:1055900018607047014600208B4A0832106820F0DE
:1055A000030008431060704787480830006800F027
:1055B0000C00704701460020834A0832106820F032
:1055C000F000084310607047014600207E4A083210
:1055D000106820F4E0500843106070470146002036
:1055E000794A0832106820F4604040EAC100106037
:1055F0007047F0B500210022002402250026022376
:10560000714F08373F6807F00C0121B1042905D01C
:10561000082937D105E0724F076036E0714F076007
:1056200033E0694F3F1D3F68C7F38056664F3F1D0B
:105630003F6807F03F036EB16A4FB7FBF3F7DFF83F
:1056400088C10CF1040CDCF800C0CCF3881C07FB0B
:105650000CF40CE0624FB7FBF3F7DFF86CC10CF110
:10566000040CDCF800C0CCF3881C07FB0CF4564F8C
:105670003F1D3F68C7F301477F1C7D00B4FBF5F772
:10568000076002E0564F076000BF00BF4E4F08376B
:105690003F6807F0F0010909534F7A5C0768D7406B
:1056A0004760494F08373F6807F4E051890A4E4F79
:1056B0007A5C4768D7408760434F08373F6807F4F4
:1056C0006041490B484F7A5C4768D740C760F0BDDE
:1056D000002100F44072B2F5407F0AD13A4A083204
:1056E000116821F4F811414A02401143364A083248
:1056F0001160354A70321268C0F30B031A43324B03
:1057000070331A607047354944390860704733492F
:1057100040390860704736490860704701460020EC
:10572000294A8C32106820F01F004A1E1043264A76
:105730008C321060704701460020234A8C3210687A
:1057400020F4F8504A1E40EA02201F4A8C321060B2
:105750007047014600201C4A8C32106820F440102B
:1057600008431060704701460020174A8C321068C9
:1057700020F4400008431060704701460020124AA0
:105780008C32106820F4403008431060704719498B
:105790000860704739B10C4A3032126802430A4B34
:1057A00030331A6006E0084A303212688243064BF2
:1057B00030331A607047F9B1034A34321268024339
:1057C000014B34331A601CE000380240FFFFF6EA58
:1057D000103000240030002000004742800E474275
:1057E0000024F40000127A00D6000020FFFCFF0F16
:1057F0005C014742E01147428F4A126882438E4B58
:105800001A60704739B18C4A121D126802438A4BE4
:105810001B1D1A6006E0884A121D12688243864BDF
:105820001B1D1A60704739B1834A0C32126802435B
:10583000814B0C331A6006E07F4A0C3212688243B7
:105840007D4B0C331A60704739B17B4A10321268B5
:105850000243794B10331A6006E0774A103212681F
:105860008243754B10331A60704739B1724A243A3B
:1058700012680243704B243B1A6006E06E4A243AD9
:10588000126882436C4B243B1A60704739B16A4AF4
:10589000203A12680243684B203B1A6006E0664AD1
:1058A000203A12688243644B203B1A60704739B13A
:1058B000614A1C3A126802435F4B1C3B1A6006E0C7
:1058C0005D4A1C3A126882435B4B1C3B1A6070476E
:1058D00039B1594A143A12680243574B143B1A60C3
:1058E00006E0554A143A12688243534B143B1A603F
:1058F000704739B1504A103A126802434E4B103B80
:105900001A6006E04C4A103A126882434A4B103B38
:105910001A60704739B1484A1C3212680243464B3C
:105920001C331A6006E0444A1C3212688243424B20
:105930001C331A60704739B13F4A20321268024363
:105940003D4B20331A6006E03B4A20321268824306
:10595000394B20331A60704739B1374A2432126804
:105960000243354B24331A6006E0334A243212686E
:105970008243314B24331A60704739B12E4A2C329E
:10598000126802432C4B2C331A6006E02A4A2C3250
:1059900012688243284B2C331A60704739B1264A6B
:1059A000303212680243244B30331A6006E0224A38
:1059B000303212688243204B30331A60704701281E
:1059C00008D11D493C31096841F008011A4A3C32AE
:1059D000116007E018493C31096821F00801164AB6
:1059E0003C321160704739B1134A273A12780243AA
:1059F000114B273B1A7006E00F4A273A1278824370
:105A00000D4B273B1A7070470B484030006840F040
:105A10008070094940310860704701460020064AFD
:105A2000283A12680A400AB1012000E000207047BD
:105A300001492639087070473438024010B50446D1
:105A4000FA48844208D101211020FFF752FF0021BB
:105A50001020FFF74EFF57E0F548844209D101219D
:105A60004804FFF735FF00214FF40030FFF730FF07
:105A70004AE0F048844209D101218804FFF728FF59
:105A800000214FF48020FFF723FF3DE0EA488442E5
:105A900009D10121C804FFF71BFF00214FF40020AA
:105AA000FFF716FF30E0E548844209D101210805DF
:105AB000FFF70EFF00214FF48010FFF709FF23E0EE
:105AC000DF48844208D101212020FFF712FF002186
:105AD0002020FFF70EFF17E0DA48844209D10121A8
